:020000040800F2
:1000000000100020F52C0008412D0008412D0008AB
:1000100000000000000000000000000000000000E0
:10002000000000000000000000000000412D00085A
:100030000000000000000000412D0008412D0008D4
:10004000412D000800000000412D0008412D00084E
:10005000412D0008412D0008412D0008412D0008C8
:1000600000000000412D0008412D0008412D00082E
:10007000412D0008412D0008412D0008000000001E
:10008000412D00080000000000000000412D000884
:1000900000000000412D000899200008412D0008B3
:1000A00000000000412D000800000000412D000864
:1000B0000000000000000000000000000000000040
:1000C00010B5064C2378002B07D1054B002B02D02E
:1000D000044800E000BF0123237010BD0800002089
:1000E000000000003C2E0008044B10B5002B03D08C
:1000F0000349044800E000BF10BDC04600000000F6
:100100000C0000203C2E00080023C25C0133002AB2
:10011000FBD1581E70470000002243088B4274D365
:1001200003098B425FD3030A8B4244D3030B8B42F8
:1001300028D3030C8B420DD3FF22090212BA030C01
:100140008B4202D31212090265D0030B8B4219D3E2
:1001500000E0090AC30B8B4201D3CB03C01A524102
:10016000830B8B4201D38B03C01A5241430B8B424A
:1001700001D34B03C01A5241030B8B4201D30B0333
:10018000C01A5241C30A8B4201D3CB02C01A52415A
:10019000830A8B4201D38B02C01A5241430A8B421D
:1001A00001D34B02C01A5241030A8B4201D30B0206
:1001B000C01A5241CDD2C3098B4201D3CB01C01A20
:1001C000524183098B4201D38B01C01A524143092A
:1001D0008B4201D34B01C01A524103098B4201D318
:1001E0000B01C01A5241C3088B4201D3CB00C01A85
:1001F000524183088B4201D38B00C01A52414308FD
:100200008B4201D34B00C01A5241411A00D2014621
:10021000524110467047FFE701B5002000F0F0F8AA
:1002200002BDC0460029F7D076E7704703460B436E
:100230007FD4002243088B4274D303098B425FD3DF
:10024000030A8B4244D3030B8B4228D3030C8B420B
:100250000DD3FF22090212BA030C8B4202D31212F1
:10026000090265D0030B8B4219D300E0090AC30BC6
:100270008B4201D3CB03C01A5241830B8B4201D373
:100280008B03C01A5241430B8B4201D34B03C01A5C
:100290005241030B8B4201D30B03C01A5241C30AD4
:1002A0008B4201D3CB02C01A5241830A8B4201D345
:1002B0008B02C01A5241430A8B4201D34B02C01A2F
:1002C0005241030A8B4201D30B02C01A5241CDD2D4
:1002D000C3098B4201D3CB01C01A524183098B421F
:1002E00001D38B01C01A524143098B4201D34B0108
:1002F000C01A524103098B4201D30B01C01A52416B
:10030000C3088B4201D3CB00C01A524183088B42F1
:1003100001D38B00C01A524143088B4201D34B00DA
:10032000C01A5241411A00D201465241104670474C
:100330005DE0CA0F00D04942031000D34042534051
:1003400000229C4603098B422DD3030A8B4212D311
:10035000FC22890112BA030A8B420CD38901921143
:100360008B4208D3890192118B4204D389013AD080
:10037000921100E08909C3098B4201D3CB01C01A55
:10038000524183098B4201D38B01C01A5241430968
:100390008B4201D34B01C01A524103098B4201D356
:1003A0000B01C01A5241C3088B4201D3CB00C01AC3
:1003B000524183088B4201D38B00C01A5241D9D2DB
:1003C00043088B4201D34B00C01A5241411A00D25C
:1003D0000146634652415B10104601D34042002B58
:1003E00000D54942704763465B1000D3404201B5D7
:1003F000002000F005F802BD0029F8D016E770478C
:100400007047C0468446081C6146FFE71FB500F0F0
:10041000A9F8002801D40021C8421FBD10B500F082
:100420002BF84042013010BD10B500F09BF80028B9
:1004300001DB002010BD012010BDC04610B500F04A
:1004400091F8002801DD002010BD012010BDC0463C
:1004500010B500F039F8002801DC002010BD0120A3
:1004600010BDC04610B500F02FF8002801DA0020BA
:1004700010BD012010BDC04670B542004E024C00B8
:1004800045026D0A120EC30F760A240EC90FFF2A09
:100490000FD0FF2C11D00120A24200D070BDB54278
:1004A000FCD18B420DD0002AF8D12800451EA8416E
:1004B000F4E70120002DF1D1EBE70120002EEDD172
:1004C000E9E70020EAE7C04670B54A004E0245025F
:1004D00044006D0A240EC30F760A120EC90FFF2CBA
:1004E00015D0FF2A0ED0002C15D1002A01D1002EE4
:1004F0001CD0002D14D08B4227D00220013B184085
:10050000013870BD002EEED002204042F9E7002DE8
:10051000FAD1FF2A0ED0002A0ED1002EEDD00BE02A
:1005200001230139994308000130EAE70020002D3A
:10053000E7D0E2E7002EE7D18B42DED1944205DD21
:100540000221581E08400138DBE70024A24204DCE7
:10055000B542D2D80020B542D3D2581E01239843C9
:100560000130CEE730B5420044024D02C30F4800CF
:10057000640A120E6D0A000EC90FFF2A12D0FF285E
:100580000CD0002A12D1002819D1002D17D1002C2F
:100590002BD00220013B1840013826E0002DF0D07E
:1005A000022022E0002CFBD1FF281FD000281FD101
:1005B000002D1DD10220013B1840013815E0002C10
:1005C0000ED08B42E5D10022904204DCAC42E0D850
:1005D0000020AC4209D2581E01239843013004E0A8
:1005E0000123013999430800013030BD002DD7D1D6
:1005F0008B42CED18242E7DD0221581E08400138ED
:10060000F3E7C046F0B54E4657464546DE46E0B5F0
:1006100043025B0A450083B00F1C99462D0EC60F9E
:10062000002D57D0FF2D24D08020DB00C0041843BC
:10063000002381469A469B467F3D7C027A00FB0F51
:10064000640A120E984623D0FF2A4BD0E300802480
:100650000020E4047F3A1C43AD186B1C474601930D
:10066000534677403A000F2B48D87D499B00CB5822
:100670009F46002B00D085E008339A46063B9B46F8
:100680007C027A00FB0FFF25640A120E9846DBD12C
:10069000002C00D090E0524601231A4392460120DC
:1006A000DBE74C4658461700022824D0032800D127
:1006B000CFE00022002301284DD15802D205400A84
:1006C000FF071043384303B03CBC90469946A2460E
:1006D000AB46F0BD002B5BD104239A46033B0025BB
:1006E0009B46AAE7FF35002C60D1524602231A43ED
:1006F00092460220B1E7FF220023DEE74B461B0CA7
:100700009C464B462604360C180461463300220CE6
:100710006446000C43434E435043544380191A0C23
:100720001218964203D9802149028C4664441B0466
:100730001B0C1004C01883015E1EB341800E1843C9
:10074000130C1B199B0103431C00230179D50123C2
:1007500062081C401443019A7F32002A4DDD630772
:1007600004D00F232340042B00D00434230103D5ED
:100770003C4B019A1C408032FE2ABCDCA3015B0A80
:10078000D2B29AE70C239A46093BFF259B4654E7D1
:10079000180001F063FC4A46431F76259A40002367
:1007A0006D4291462D1A9A469B4646E752460323D0
:1007B0001A439246032050E7200001F04FFC431FEC
:1007C0002D1A9C40763D002047E780230027DB035D
:1007D000FF2272E7424666E74C463200584662E71F
:1007E00080234A46DB031A4222D01C4220D12343F5
:1007F0005B025B0A4746FF225FE701239A1A1B2A26
:1008000021DC23000199D3409E318C401A00230043
:100810005C1EA34113435A0704D00F221A40042A36
:1008200000D004335A0111D49B015B0A002244E733
:1008300080234A46DB0313435B025B0A3700FF2237
:100840003BE7019587E70022002336E701220023DA
:1008500033E78023DB0323435B025B0AFF222CE7A1
:10086000542E0008FFFFFFF7F8B54746CE46440078
:10087000C20F80B547024802400A844666464800D7
:100880007F0A240EF60025009046FB00000EC90FDB
:10089000B146FF2800D185E001267140261A914219
:1008A00057D0002E43DD002800D07FE049460029C4
:1008B00000D1AAE0013E002E00D0F7E05B1A5A01F9
:1008C00000D48BE09B019C09200001F0C7FB053898
:1008D0008440854200DDD3E0451B23002020013504
:1008E000EB40451BAC40621E944123430724002586
:1008F0001C40012241460A40002C04D00F2119401F
:10090000042900D00433590100D480E00135ECB251
:10091000FF2D00D0A3E0FF2400235B02E405580A6A
:10092000D207204310430CBC90469946F8BD002ED8
:1009300074D1601CC0B2012800DCA7E04A469C1AB2
:10094000620100D5B6E0002CBED1002200240023B5
:10095000E3E7002E00DC85E0002846D0FF2C49D0DC
:1009600080224846D2041043814601221B2E09DC16
:1009700020204C46801B84404A462000F240441E02
:10098000A04102439B185A0128D50135FF2D00D103
:10099000A8E00122072494491A405B080B40134346
:1009A0001C40A6E7002E00D078E775E7FF2C54D056
:1009B00080224946D2041143894601221B2E09DCBC
:1009C00020214846891B88404A460100F240481EC3
:1009D00081410A439B1A5A0100D573E7012241461F
:1009E0000A40590700D089E711E04846002858D14D
:1009F000FF2C0CD1DB08002B00D18CE78020C0033A
:100A000003435B025B0AFF2487E7FF2C25D0DB084A
:100A1000FF2DF0D05B025B0AECB27EE7002C4DD0DC
:100A2000FF2818D08024E404724223431B2A00DDEF
:100A3000C4E01C002025D440AA1A93405A1E9341BA
:100A400023434A460500D31A884638E7721CF8D07B
:100A5000F243FF28EAD10A004B46FF25D7E79B0166
:100A60005B0A5AE7002E41D1651CE9B2012945DD38
:100A7000FF2D00D14FE707244B445B081C4038E7AB
:100A800007225A4B2D1A2340144032E7002C1DD167
:100A9000002B7AD14B46002B00D191E00A000025B3
:100AA000B5E7013E002E19D14B446CE7FF2C84D1F1
:100AB000FF25ACE74A468846D41A05E7002BC5D186
:100AC0000A00FF28C8D005004B46A0E7002B49D1FB
:100AD0004B46002B77D00A00FF2598E7FF2C00D06B
:100AE00043E787E70A00FF24002316E7002C15D10F
:100AF000002B57D1FF28E6D14B467BE7002C20D1B5
:100B0000002B57D04946002953D04B445A0168D591
:100B10000724364A1C4001251340EAE6FF28EBD0A3
:100B20008022D204764213431B2E53DC2025AD1BBA
:100B30001A00AB40F2405C1EA34113434B44050036
:100B400021E7002BD8D04946002900D152E7802167
:100B5000C9030F4200D14DE76046084200D049E783
:100B60004B4647E74846FF25002800D14FE7802243
:100B7000D203174204D06046104201D14B4688464A
:100B800001224146FF250A4041E7484600281FD080
:100B90001A1A500120D54A460724D31A1C40884609
:100BA0000025A6E6741CC9D0F643FF28BCD14B46ED
:100BB00020E799464B460025DB082BE7012340E759
:100BC00000220023A9E680230022DB03FF24A4E601
:100BD00000251CE70123B1E7002AF1D0130000250E
:100BE000FCE60025FAE6C046FFFFFF7DFFFFFFFBA6
:100BF00041024200C30F490A120E00207E2A0DD97D
:100C00009D2A0CD8802000040143952A0ADC9620F6
:100C1000821AD1404842002B00D108007047034A95
:100C20009818FBE7963A9140F4E7C046FFFFFF7F34
:100C300070B500283DD0C317C5185D40C40F28000B
:100C400001F00CFA9E22121A962A07DCD2B208286A
:100C500033DD083885406802400A23E0992A0BDD1D
:100C6000052329001B1AD94003001B339D402B008C
:100C70005D1EAB4119430D00052801DD431F9D405A
:100C80002B000F490B406E0709D00F263540042D6D
:100C900005D004335D0102D59F220B40121A9B013F
:100CA000580AD2B24002D205400AE407104320435A
:100CB00070BD002400220020F4E76802400AF1E73A
:100CC000FFFFFFFBF0B55746DE464E464546E0B512
:100CD000834607000E03480085B092461C00360B81
:100CE000400DCD0F002800D19DE0954B984239D0A2
:100CF0008023F6001B041E43924A7B0F3343994620
:100D0000944603006344009300230026FF000293EF
:100D100023031B0B98466300E40F52465B0D0194BE
:100D200000D1B3E086498B4200D19EE04246D1001B
:100D3000802212040A435146490F11438B468149D0
:100D400052468C4600996344CB1A0021D20000938E
:100D50002B0063409A460F2E00D905E17A4BB6006E
:100D60009B599F465B463343994600D0B8E0022327
:100D70000826002700900293CAE7CB463A00029962
:100D80000195019B9A46022927D0032900D180E2D0
:100D9000012944D06D49009B8C4663441C00002C03
:100DA00038DD530700D013E2D2085B46DB0109D5DA
:100DB0005946674B19408B468021C9008C46009BE1
:100DC00063441C00634B9C4207DC5B4664055F0781
:100DD0005B0217431B0B620D02E000230027584AF9
:100DE00000211B031C0B0B0D1B05234314055A4A42
:100DF000380013401C4353466400DB0764081C435F
:100E0000210005B03CBC90469946A246AB46F0BDD9
:100E10000122524201231B1B382B00DCADE10022D2
:100E200000230027DCE75B46334399465ED0002E63
:100E300000D18AE1300001F011F903000B3B1C2BBB
:100E400000DD7BE11D22D31A5A460100DA40083941
:100E50008E4013005F46334399468F403F4B002638
:100E60001B1A00930023029352E7414653460B435B
:100E70003B499B468C46009B634400935B46002B9A
:100E80003BD1022300221E43022161E74346134364
:100E90009B4637D04346002B00D162E1404601F02B
:100EA000DDF803000B3B1C2B00DD53E10200414643
:100EB000083A914088461D21CB1A5146D9400B0073
:100EC00041460B439B46534693401A00009B2549DD
:100ED0009C46604403008C4663440093002137E73E
:100EE0000323B14600900C26029311E700230093E0
:100EF00001330426002702930AE70323C3461E4357
:100F0000032125E701331E430022012120E70023AE
:100F10009A46802300271B03094A61E7802349463C
:100F20001B03194200D1E2E05946194200D0DEE02D
:100F30000B431B0317001B0BA246014A50E7C04698
:100F4000FF07000001FCFFFF942E0008FF030000D4
:100F5000FFFFFFFEFE070000FFFF0F800DFCFFFFFD
:100F600001F8FFFFF3030000D94500D9CBE000D121
:100F7000C6E03C0048460027009B013B00935B46CF
:100F8000160E1B021E431302984633041B0C99468F
:100F9000310C0191FFF746F94A4642430B04210CFC
:100FA000050019438A4207D98919013D8E4203D8A9
:100FB0008A4201D9851E8919881A0199FFF732F9E9
:100FC00009048C464A46210464464243090C030046
:100FD00021438A4204D98919013B8E4200D8F1E0AD
:100FE0002D041D43AB464346891A4246280C120481
:100FF0001D0C5B46140C22001B041B0C5A4303946B
:101000006B434443029568431B19150CEB189C4233
:1010100003D980246402A44660441C0C15041B04FC
:101020002D0C20185D19814277D373D00C1AA24A77
:101030007D1BAF42BF419446009B7F426344E01B4F
:101040001C00864200D1DBE00199FFF7EBF84A462D
:1010500042430B04290C070019438A4207D9891916
:10106000013F8E4203D88A4201D9871E8919881A06
:101070000199FFF7D7F809044A46894629044D46E5
:101080004243090C030029438A4207D98919013BCD
:101090008E4203D88A4201D9831E89193F04891AD6
:1010A0003A00039F1A43380013041B0C584381462F
:1010B0000298150C6F43434345434846000C844651
:1010C000DB1963449F4203D9802040028446654473
:1010D00048461F0C00041B04000C7D191818A94277
:1010E00000D284E000D17FE001231A4357E6802339
:1010F0004A461B0313431B031B0BAA466F4A6FE6AA
:10110000BA4200D935E74B46DC0758087B081C4338
:10111000FF0734E70024AF4289D247444745A44142
:101120005B466442A4196418013BA6421ED2A04249
:101130006DD800D1B6E0241A9B4678E703005A46E2
:10114000283B9A400027914688E6584600F086FFE3
:10115000203072E603005246283B9A409346002214
:10116000B4E6504600F07AFF20309AE6A642E2D17B
:10117000B845DCD9341A9B4659E71F2B65DC504C27
:101180000099A4465C46614408008C4011008240EE
:10119000D940501E82410C4314435A46DA40130092
:1011A000620709D00F222240042A05D02200141D14
:1011B0009442894149425B181A0262D501220023F8
:1011C00000270DE68A4200D80AE7831E891907E73F
:1011D0000F231340042B00D1E6E5171D97429241DF
:1011E00053429B44FA08E0E5002800D1D7E5711886
:1011F000531EB14227D3A94215D358D01A0073E722
:10120000002B00DC04E6012300229B44CDE50223F1
:101210004744474589415B429C46494289190C191C
:10122000E344241A03E743465F0047459B41B84621
:101230005B429E19023A8919A94200D054E7404501
:1012400000D051E7ABE51A00F6E71F215F4649429F
:101250000C1BE740202B07D01A49009B8C466344A7
:1012600018005B4683401A43501E82413A430727C9
:101270000023174009D00F21002311401400042936
:1012800095D122005F075B021B0BD2081743002297
:10129000A6E5802359461B030B431B0317001B0BBA
:1012A000064A9DE5BD42B2D89B460024BFE6804574
:1012B000B9D31A00C3E7C046FF030000FF070000D0
:1012C0001E0400003E040000F0B55746DE464E46C0
:1012D0004546E0B5834606000F03480087B09246B6
:1012E0001D003F0B400DCC0F002800D16FE0DE4BFE
:1012F000984238D08023FF001B041F43730F3B43E9
:101300000193DA4B0027994600239B46F60081445F
:101310002B0369001B0B52469846490DED0F00291F
:1013200000D185E0D04B994200D173E04346DA000A
:1013300080231B0413435246CC48520F8446134368
:10134000524600206144D200894421006940009146
:101350008C46012149448A460F2F00D990E0C449A8
:10136000BF00CF59BF465B463B43019300D06AE1C3
:1013700002230827002681469B46C9E732005846CB
:10138000019B61460091022800D175E0032800D13D
:10139000FEE1012800D02CE10023002700260025D3
:1013A0003F032A0D3F0BB34812053A4302401B0589
:1013B0001343009A5B00D1075B080B433000190010
:1013C00007B03CBC90469946A246AB46F0BD5B4692
:1013D0003B43019300D12FE1002F00D1A5E138005C
:1013E00000F03CFE03000B3B1C2B00DD96E11D22B0
:1013F000D31A5A460100DA405E4608398F4013007E
:101400008E403B4301939C4B00271B1A99460023B7
:101410009B467DE7414653460B4393498C46E14446
:10142000002B00D01AE102220220174300228CE791
:10143000134300D10DE14346002B00D181E140462A
:1014400000F00CFE02000B3A1C2A00DD72E10100E4
:10145000434608398B4098461D239A1A5346D34079
:101460001A004346134352468A404946081A8249A5
:1014700089468144002068E77B4B002700268EE7E1
:10148000140C1204120C1100370C3604350C79437D
:1014900028008C462E00604360448346564321005A
:1014A000300C80465846794340440291844506D921
:1014B0008846802149028C46E04441460291360428
:1014C000010C360C00048B4681191E0C1B041B0CEE
:1014D0000391190079438C46280075436544A8465A
:1014E0005843050C45447743A94203D9802149025A
:1014F0008C466744290C8C4639000004000C2D04EE
:101500002D186144AB4405915946049101990F048B
:101510003F0C080C390051434243904602008C4670
:10152000090C8B4662437C4344445C44A04503D988
:101530008021490288464244210C884661460904BC
:10154000090C8C4639005943434370437E430F0CCA
:10155000F6182404BE19644442448C46B34203D9AD
:1015600080235B0298464044029B61469846049B58
:10157000370443449B46AB45AD416B420D0405998E
:101580002D0C8C467F196744FD18A8465D462D1921
:10159000A542A44193466442A446C344DC448F421E
:1015A000BF4198459B4193459241A445A4415B426C
:1015B0007F421F43360C52426442BF192243BF1878
:1015C000624638184302D20D039913436A020A4354
:1015D000501E82416146ED0D2A434E023243D9012D
:1015E00000D4B3E00126500832400243DE07324304
:1015F0005B08224C5444002C62DD510709D00F20B7
:101600001040042805D0101D9042924152429B1870
:101610000200D90104D580241948E4000340544451
:101620001848844200DD27E75E075B02D2081F0BE3
:10163000630516435B0DB2E6002399460133042788
:1016400000269B4664E60323019781460C279B46B0
:101650005EE6012201201743002276E603230320E1
:101660001F43434671E6C046FF07000001FCFFFF31
:10167000D42E0008FFFF0F800DFCFFFFFF030000CA
:10168000FFFFFFFEFE0700000023802700933F03BB
:101690000026434B83E6019B3200A446584670E681
:1016A000AC466EE6802701993F0339422DD03B427C
:1016B0002BD11F433F033F0B00951600384B6EE6BE
:1016C00001252D1B382D00DD66E61F2D40DC354839
:1016D0001C005044160082408440EE40501E82415F
:1016E00034431443EB40620709D00F222240042AFE
:1016F00005D02200141D9442804140421B181A025A
:101700003ED501230027002649E68027019B3F03A1
:101710001F433F033F0B0094214B40E603005A4612
:10172000283B9A40002601926DE6584600F096FC50
:10173000203057E603005246283B9A40130000220F
:1017400093E6504600F08AFC20307BE6CA4650E71C
:101750001F201E004042041BE640202D03D0124CE7
:101760005444A3401A43501E8241324307260027A7
:10177000164009D00F200023104014000428B9D1CE
:1017800022005E075B021F0BD2081643002306E609
:1017900080273F031F433F033F0B1600004BFEE52E
:1017A000FF0700001E0400003E040000F8B5574685
:1017B0004E464546DE460C000903E0B5490A460F91
:1017C0005F0031431E03DB0F760A9B46530F334302
:1017D000C84E6500C000E40FD2006D0DA2468146E0
:1017E0007F0D9C469046B74200D1B9E05B4601268A
:1017F00073409B46EE1BA34500D183E0002E63DDC2
:10180000002F00D0B1E06346134300D123E1731EE3
:10181000002B00D0BAE1861A6346B0428041012510
:10182000C91A4042091A0B0200D447E149024B0A87
:1018300098464346002B00D189E1404600F00EFC5B
:101840000300083B1F2B00DD7CE120223000D21A70
:101850004146D040994002009E400A439D4200DD2F
:101860006AE15D1B6B1C1F2B00DD94E12021100041
:101870003500C91A8E40DA408840DD40711E8E4125
:10188000110007222843002506433240002A09D0D0
:101890000F233340042B05D0331DB342B6417642AB
:1018A00089191E000B0200D43DE26A1C914B5505BC
:1018B0006D0D9A4200D119E18F4AF6080A40570788
:1018C00052023743120B9BE0002E00D0C5E06E1C85
:1018D0007605760D012E00DC48E16746861ACB1BA3
:1018E000B042BF417F42B8461F004346FF1A3B004B
:1018F000B8461B0200D55FE137439AD1002200248D
:10190000002579E0002E00DCFAE0002F00D18DE008
:10191000784B9D4267D0802367461B041F43BC461B
:10192000382E00DC52E1634613435A1E93411E18C1
:1019300086428041404209180B0200D4BEE06D4B44
:1019400001359D4200D1D2E06B4A73080A40012163
:101950000E401E435108D30707221E43324095E72D
:101960001E00164300D045E740E7624B9D423AD047
:10197000802367461B041F43BC46382E00DDEBE086
:101980001F2E00DC3AE133006746203BDF403B007E
:10199000202E05D04027BF1B6646BE4032439046EE
:1019A0004646721E96413343DAE0002B00D114E222
:1019B0006346134300D168E180234E07C008C9087D
:1019C0001B030643194208D06046C008184204D1E0
:1019D00063460100D2085E071643F3009946C9002A
:1019E000720F444D11434B46DE08424B4F073743BD
:1019F000CA089D4200D16EE012036D05120B6D0DF9
:101A000000211203130B0A0D12051A433B4B2D053F
:101A100013402B435B00E4075B08234338001900A5
:101A20003CBC90469946A246AB46F8BD634613437C
:101A300011D0731E002B00D007E18618864280412A
:101A400061444042091801250B0237D502257BE786
:101A50003E00614691463500C5E75C46002D00D04A
:101A6000E1E00B000343F3D0731C00D1ACE1214B48
:101A70009F4200D13AE1F343382B00DD6FE11F2B89
:101A800000DD8CE120250E00ED1AAE40B0460600C8
:101A9000AA46DE40454635432E005546D940A8406B
:101AA0006346451EA8415B1A9C463043161AB24253
:101AB000924163465242991A3D00B4E607223240F1
:101AC000002A00D0E4E60B4BF6084F073743CA085C
:101AD0009D4200D090E73B00134300D1A6E1802354
:101AE0001B031A431203120B024D89E71500002253
:101AF000002785E7FF070000FFFF7FFFFFFF0F8044
:101B0000002E00D0C7E06B1C5E05760D012E00DCB8
:101B1000F0E0C84DAB4200D1B9E085180A0085421B
:101B200089416244494251180722CE076D082E436D
:101B3000490832401D00A9E6BF49ED1A11400722AD
:101B40003240A3E6320028388240002686E6300084
:101B500000F084FA203073E6634613435A1E934123
:101B6000C61AB04280414042091A5CE60E00674640
:101B700006431743002D5ED1002E00D0F3E0002F66
:101B800000D11EE15C46614691462CE7A94FBE425A
:101B90007BD01E00F1E610001F3DE840202B03D053
:101BA0004021CB1A9A401643731E9E4107220643DA
:101BB00032400021002583E7161A6346B242804175
:101BC000591A40420B1A98465C4632E61F2E00DD39
:101BD000ABE02027BB1B9A4663465746BB4099465D
:101BE00013004F46F3401F433B005746BA40571E71
:101BF000BA4113436246F240891898E62027BB1B7E
:101C00009A4663465746BB40994613004F46F340F9
:101C10001F433B005746BA40571EBA411343624622
:101C2000F240891A9CE7834B9F425FD080252D04A8
:101C30007342294320E7002E0CD1002F00D1D0E0C1
:101C40005C46614691467B4DCDE67A4FBE421CD044
:101C50001E0065E6002F18D0C0084E0706438020FE
:101C6000C9080003014208D06346DC08044204D1DD
:101C70002100DA46D2085E071643F3009946012494
:101C80005346C900720F11431C406A4DABE61D005C
:101C900000220027B4E6002D59D10B00034300D1E8
:101CA000D6E6731C00D1B2E0624B9F421ED0F343D4
:101CB000382B6FDC1F2B00DD97E020250E00ED1A7E
:101CC000AE40B0460600AA46DE40454635432E00EB
:101CD0005546A840D940451EA8418C440643B61835
:101CE00096429241514261443D0025E63D006146E5
:101CF000914678E60B000343002D00D055E6002BFB
:101D0000F5D06346134300D16DE6861886428041C4
:101D100061444042091800220B0200D4D0E6464B31
:101D200001351940B2E5B1465DE633006746203B18
:101D3000DF403B00202E05D04027BF1B6646BE403B
:101D4000324390464646721E96413343EFE5394B87
:101D50009F42CBD080252D0473422943A8E7084336
:101D6000411E8841A2E6002F00D13CE66346861A58
:101D7000CF1AB0429B415B42FB1A98461B024ED5DC
:101D8000161A6346B2429241591A5242891A5C4667
:101D900000227BE501430E00711E8E419FE71D006E
:101DA0000E00203DEE40B046202B04D04025EB1A1B
:101DB00099400843814648464346411E884118439E
:101DC00074E60022002417E6161A6346B2429241D6
:101DD000591A5242891A3D0025E561469146154D32
:101DE00001E680220024120379E61D000E00203D4A
:101DF000EE40B046202B04D04025EB1A9940084312
:101E000081464E464346711E8E411E4367E7861843
:101E100096429B4161445B42C9183D008CE54746B0
:101E20003743CED007224146324049E600273A00E8
:101E3000E6E5C046FF070000FFFF7FFF70B5002802
:101E40002DD0C317C5185D40C40F280000F006F957
:101E5000154B1B1A5B055B0D0A2815DD0B388540F9
:101E600000222D032D0B002110002D030A0D2D0B38
:101E700012052A430D4D1B052A4013435B00E4075E
:101E80005B082343190070BD020029001532914000
:101E90000A000B21081AC5402D032D0BE3E700248F
:101EA000002300250022DEE71E040000FFFF0F8054
:101EB0004100090E4B1C70B5DBB24602750AC40F17
:101EC000012B14DDE0239B006D07360BCB1800219E
:101ED0000A0D280012051C4D32435B052A405B08A1
:101EE00013435B00E4075B082343190070BD00291E
:101EF00014D1002D1ED0280000F0B0F80A281CDCF8
:101F00000B232A001B1ADA40030015339D400F4BA8
:101F100012031B1A5B05160B5B0DD8E7002D06D0CC
:101F2000320B802636036D071643094BCFE7084B6B
:101F30000026CCE700230026C9E703002A000B3B5C
:101F40009A400025E3E7C046FFFF0F8089030000A9
:101F5000FF070000F0B54C00640D0B03621C5B0A28
:101F6000460F5205C90F1E43C500520D012A29DD37
:101F7000374BE718FE2F1CDC002F3BDD8001431E92
:101F800098410722F3006D0F03432B431A40002AA8
:101F900004D00F221A40042A00D004338022D20435
:101FA0001A4024D00137FAB2FF2F02D09B01580A01
:101FB00001E0FF2200204002D205400AC907104379
:101FC0000843F0BD3543002C04D1002D0AD1002276
:101FD0000020F0E7002DECD08020C0033043FF222A
:101FE000E9E7002400235B02580AE2B2E3E7DB08DA
:101FF0003C00F8E73B001733F3DB80231B0433433B
:102000001E26F61B1F2E14DD02225242D71B1A0079
:10201000FA401700202E04D00E4A94466444A34090
:102020001D432B005D1EAB4107223B431A40002796
:10203000ADE7094A2800A218954093406C1EA541BF
:10204000F04007222B4303431A4000279FE7C04676
:1020500080FCFFFFA2FCFFFF82FCFFFF1C2101238D
:102060001B04984201D3000C10391B0A984201D37B
:10207000000A08391B09984201D30009043902A259
:10208000105C40187047C0460403020201010101C0
:1020900000000000000000000122034B1A70002223
:1020A000024B1A617047C0462400002000480140DE
:1020B000F0B5DE4657464E464546E0B587B000F0DF
:1020C0006DFD00F0C9FD00F0C1FC00F043FD00F023
:1020D000FFF800F00DF900F0F7FA6F4B99466F4BDF
:1020E0009A466F4B98464B461B78012BFBD100F06C
:1020F00089FD0190019B633B0193019B002B00DA5A
:10210000B0E0019B01930198FFF798FE0022654B18
:10211000FFF7DAF80022644BFFF7D6F80022634B92
:10212000FEF7D0FDFFF716FF02900298FFF7C0FE02
:1021300002000B0000205B49FFF738FB00225C4BDC
:10214000FEF7C0FDFFF706FF03900298039C029B79
:102150009B46FFF7ADFE0600201C0F00FFF7A8FE10
:10216000040058460D00FFF7A3FE0022514BFEF776
:10217000A9FD02000B0020002900FFF717FB020059
:102180000B0030003900FEF79DFDFFF7E3FEFA215A
:10219000049004988905FEF767FB049004980021D9
:1021A000FEF742F900285BD1049B0493049C049839
:1021B000FEF71EFDFEF73CFD011C201CFEF754FB44
:1021C0003D49FEF71FFAFEF713FD059004983B49C1
:1021D000FEF73EF9002841D1049B04930498FEF7D2
:1021E00007FD0A22514600F0E9FD00211A2000F007
:1021F00011FC04983249FEF717F9002834D1424601
:10220000012311685046526800F00AFC424601233F
:1022100011682C48526800F003FC04982749FEF727
:1022200021F96323002800D1059B0593059B092B09
:102230002ADD0A225146059800F0C0FD42460123DE
:1022400011685046526800F0EBFB059B092B13DD2B
:1022500000F0E2F94B4600221A7044E7174BBCE746
:102260000023A2E700234DE74246012311681648E8
:10227000526800F0D5FBC2E74246012311681248BC
:10228000526800F0CDFBE3E74246012311680F4896
:10229000526800F0C5FBCCE7240000202802002093
:1022A0000000002000000840000010400000154120
:1022B00000108F4000C047400000C8420000C642E6
:1022C00000002041182F0008142F00081C2F0008C0
:1022D0008023054ADB0251690B4302215361034A03
:1022E00013680B431360704700100240000400485D
:1022F0008023154A9B02516982B00B43536190229F
:10230000C021D20513688B43136000230193019B06
:10231000002B05D1019B01330193019B002BF9D0C8
:102320009022D205136809490B40136000230093E3
:10233000009B002B05D1009B01330093009B002BD9
:10234000F9D002B07047C04600100240FFFCFFFF0A
:102350009022C021D205136884B08B431360002300
:102360000393039B002B05D1039B01330393039B32
:10237000002BF9D09022D205136824490B4013603A
:1023800000230293029B002B05D1029B0133029391
:10239000029B002BF9D09023C0210820DB051A688E
:1023A0008A431A601A6880390A431A6059680143DF
:1023B00059609A6A02439A6200230193019B002BA1
:1023C00005D1019B01330193019B002BF9D0902390
:1023D000DB051A680D4910200A401A60802219682E
:1023E00052000A431A605968014359609A6A0243CD
:1023F0009A6200230093009B002B05D1009B0133C0
:102400000093009B002BF9D004B07047FFFCFFFF46
:10241000C023F0B54646D6464F469846803B99467F
:10242000383B90229A46F833082100249C46102518
:10243000C0B55D4E88B0D20543B2002B00DAA2E0F1
:1024400047461368BB434F46136013683B435746E8
:10245000136053683B435360936A3B439362019418
:10246000019B002B05D1019B01330193019B002BA4
:10247000F9D01368334013600394039B002B05D1FC
:10248000039B01330393039B002BF9D0674613682A
:102490003340136013683B43136053682B4353600E
:1024A000936A2B4393620294029B002B05D1029BFB
:1024B00001330293029B002BF9D001394000C9B2CD
:1024C000C0B20029B8D19022C020D205136883433E
:1024D00013600791079B002B05D1079B01330793DE
:1024E000079B002BF9D09022D20513682E490B4090
:1024F000136000230693069B002B05D1069B013336
:102500000693069B002BF9D09023DB051A68264919
:1025100010200A401A608022196852000A431A608B
:102520005968014359609A6A02439A6200230593ED
:10253000059B002B05D1059B01330593059B002BC3
:10254000F9D09023C0210820DB051A688A431A605D
:102550001A6880390A431A605968014359609A6AB7
:1025600002439A6200230493049B002B05D1049B31
:1025700001330493049B002BF9D008B01CBC904697
:102580009946A246F0BD47461368BB4313600094CA
:10259000009B002B00D06CE7009B01330093009B55
:1025A000002BF9D065E7C046FFFCFFFF30B50C00FB
:1025B000050083B06400FFF7CBFEE0B2FFF728FF11
:1025C0002878FFF725FF6878FFF722FF9022D205D1
:1025D000136810490B40136000230093009B002BED
:1025E00005D1009B01330093009B002BF9D0902272
:1025F000C021D20513688B43136000230193019B14
:10260000002B05D1019B01330193019B002BF9D0D5
:1026100003B030BDFFFCFFFFF0B54646D6464F463F
:10262000C0B584B06B46DE1D002333703378072BB2
:1026300042D80023994680235B019A46214B02AC85
:1026400098464A4633783C21503B20002270637004
:10265000FFF7ACFF4B463C2120002380FFF7A6FF8D
:1026600053463C2120002380FFF7A0FF80233C211C
:10267000DB0120002380FFF799FF4B463578039359
:10268000039BED017F2B10DC40274246039B3C213E
:10269000EB18D35C200063702770FFF787FF039B64
:1026A00001330393039B7F2BEFDD33780133DBB2E0
:1026B00033703378072BC4D904B01CBC90469946BC
:1026C000A246F0BD28000020F0B58026802783B008
:1026D00001AC654DFFF70CFE3C2120002580FFF783
:1026E00065FF258000253C212000FFF75FFFB60134
:1026F0003C2120007F012680FFF758FF3C2120006D
:102700002780FFF753FF594B3C2120002380FFF720
:102710004DFF574B3C2120002380FFF747FF3C2112
:1027200020002580FFF742FF3C2120002780FFF793
:102730003DFF80233C21DB0120002380FFF736FF93
:102740004C4B3C2120002380FFF730FF80233C21AD
:102750005B0020002380FFF729FF474B3C2120002E
:102760002380FFF723FF454B3C2120002380FFF708
:102770001DFF434B3C2120002380FFF717FFF82368
:102780003C215B0120002380FFF710FF3D4B3C21E3
:1027900020002380FFF70AFF3B4B3C2120002380D1
:1027A000FFF704FF3C2120002580FFF7FFFE374B99
:1027B0003C2120002380FFF7F9FE354B3C2120000F
:1027C0002380FFF7F3FE334B3C2120002380FFF7EB
:1027D000EDFE88233C219B0120002380FFF7E6FECD
:1027E0002D4B3C2120002380FFF7E0FE80233C217D
:1027F0009B0020002380FFF7D9FE284B3C212000BE
:102800002380FFF7D3FE3C2120002680FFF7CEFE79
:10281000234B3C2120002380FFF7C8FEA0233C214E
:102820005B0120002380FFF7C1FE1E4B3C212000EE
:102830002380FFF7BBFE0195019B1B4A934209D8F9
:1028400000211A48019BC154019B01330193019B54
:102850009342F7D9FFF7E0FE0022154B1A805A8009
:1028600001325A7103B0F0BD00AEFFFF00B0FFFFB0
:1028700000C0FFFF0081FFFF00A0FFFF00A6FFFFD9
:1028800000A8FFFF00A4FFFF00D3FFFF00D5FFFF5C
:1028900000F0FFFF00D9FFFF00DAFFFF00DBFFFFC2
:1028A000008DFFFF00AFFFFFFF01000028000020A8
:1028B0003C020020F0B55746DE464E464546E0B5A0
:1028C0008DB00792514A06911288C9B292460A0009
:1028D000524407000490059200207F2A00DD83E027
:1028E00006AA5578494A009556882A00B44662449B
:1028F00001962C001F2A77DC0990099A95426FD91E
:102900003A00203A544307229046063A9446404AF9
:10291000079D9146029503940398099A834602986D
:102920005A445200125A0A9200220B920B9A914278
:102930004FD952468024D5B26A462402167920E047
:10294000C7B2099ABB46000615D4B218D2B21F2AE4
:1029500011D84F46D008C00158443F56BB464746A1
:102960003A40674697407AB25F46012B43D097437F
:102970003A004F463A540B9A01320B920B9A8A4214
:1029800027D20A9A0B9882400B9828182242D7D156
:10299000C7B2099ABB460006EDD4B218D2B21F2ABC
:1029A000E9D8D008C0011A4F58443F56BB464746A5
:1029B0003A40674697407AB25F46002B20D0974353
:1029C0003A00134F3A540B9A01320B920B9A8A42F7
:1029D000D7D3099A009801320992099A90429BD85C
:1029E0000A4B059A04981A800DB03CBC9046994653
:1029F000A246AB46F0BD17433A004F463A54BAE7F9
:102A000017433A00024F3A54B5E7C0463C02002053
:102A100028000020014B1880598070473C0200209C
:102A200070B582B00500009101921E00002406E0FE
:102A3000285D33000099019AFFF73CFF013428001C
:102A4000FDF762FBA042F3D802B070BDF0B5802460
:102A5000C6463B49A4024B6900B523434B61902312
:102A6000DB051A683748102502401A608022186872
:102A7000920302431A60C0229868920302439A604C
:102A80008022586A920002435A62802288691201A9
:102A900002438A612C4A90275068C8262843506018
:102AA0000D20FF375062D762D663D069A8466035E3
:102AB0002843D061106A8446802065464000284340
:102AC0001062506C844680206546000205435564C0
:102AD0004D692C434C611C681C4D2C401C601C68CB
:102AE00004431C601C6AA4468024654664052C438C
:102AF0001C620224CB6923430434A446CB61144BEB
:102B000099682143996061469C680C439C60E0246D
:102B1000DF629E639969E4010C439C614446196A33
:102B200021431962596C0843586401201968014314
:102B3000196013680343136004BC9046F0BDC0469F
:102B400000100240FFFFCFFF002C0140FF3FFFFFBE
:102B500000040040802301200B4ADB0291690B43F3
:102B600093610A4B0A4A9A620A4ADA62F43AFF3AD5
:102B70005A63196801431960DA680243DA608022F7
:102B8000054BD2031A607047001002400048014014
:102B90007FBB0000E703000000E100E01021164BBE
:102BA0001A680A431A601A680F390A431A60134BED
:102BB00013491A680A4080211A6089041A680A4277
:102BC000FCD1A022596892030A435A6080221968F6
:102BD00052040A4380211A60084A890413680B4290
:102BE000FCD0022153680B435360082203494B6811
:102BF0001A42FCD07047C04600200240001002403C
:102C0000FFFFFFFE30B583B06A460023D41C01935A
:102C100023702378F92B16D8012004210D4B1A6854
:102C20001042FCD09A680A439A601A681142FCD09C
:102C30001D6C019A5219019222780132D2B222708F
:102C40002278F92AEBD90198FA21FDF7EFFA80B240
:102C500003B030BD002401408022234B9202596909
:102C600022480A435A619022D2051168014011603E
:102C7000C021106809010143116080229969920006
:102C80000A439A6120221A4B9A628022196912061D
:102C90000A4301211A615A690A435A619A6811422A
:102CA00003D09A6801310A439A600121104A93685F
:102CB0001942FCD1802391681B060B4393600C4A98
:102CC0009368002BFCDB012311680B4202D01168D2
:102CD0000B4313600121064A93680B43936013680A
:102CE0001942FCD07047C04600100240FFF3FFFFBE
:102CF000002401400C4885460C480D490D4A00232C
:102D000002E0D458C4500433C4188C42F9D30A4AA0
:102D10000A4C002301E013600432A242FBD300F00E
:102D200011F8FFF7C5F9FEE70010002000000020B1
:102D30000800002098340008080000204402002009
:102D4000FEE7000070B500260C4D0D4C641BA4106E
:102D5000A64209D1002600F071F80A4D0A4C641B06
:102D6000A410A64205D170BDB300EB5898470136B8
:102D7000EEE7B300EB5898470136F2E790340008CD
:102D8000903400089034000894340008931E10B565
:102D90000C00222B04D900231C000B70200010BD56
:102DA0000A2A09D1002807DA2D230B70012140429D
:102DB000611800F007F8F1E70021F9E710B5FFF717
:102DC000E5FF10BDF0B517008DB0252206000D00FF
:102DD00002A8144900F028F802AABB1E00240192A0
:102DE000222B05D92C70250028000DB0F0BD140051
:102DF00030003900FDF716FA84460198621CAB18C2
:102E0000415C5E1E31706646002EF0D11E702B00B4
:102E10005A1B9442E8DD1A78295D19702A5501334E
:102E2000013CF5E768340008002310B59A4200D150
:102E300010BDCC5CC4540133F8E70000F8B5C046BF
:102E4000F8BC08BC9E467047F8B5C046F8BC08BC44
:042E50009E467047E3
:102E5400FC060008A6060008A6060008D407000819
:102E6400A2060008A2060008CA070008D407000842
:102E7400A2060008CA070008A2060008D407000832
:102E8400D8070008D8070008D8070008E00700089A
:102E9400680F0008DA0D00081E0E0008820D0008F5
:102EA4001E0E00080E0F00081E0E0008820D0008FA
:102EB400DA0D0008DA0D00080E0F0008820D000874
:102EC4007A0D00087A0D00087A0D00081C0F00081E
:102ED400801400088213000882130008A01600085A
:102EE4007C1300087C13000888160008A01600084C
:102EF4007C130008881600087C130008A01600083C
:102F0400961600089616000896160008A4160008DF
:102F1400200000002E00000030000000000000002F
:102F2400000000000000000000000000000000009D
:102F3400000000000000000000000000000000008D
:102F4400000000000000000000000000000000007D
:102F5400E003E003E003E003E003E003E003E00355
:102F6400C003C003C001C001C001C001C001000012
:102F740000000000E003E003E003000000000000A4
:102F8400000000003C1E3C1E3C1E3C1E3C1E3C1E21
:102F94003C1E0000000000000000000000000000D3
:102FA400000000000000000000000000000000001D
:102FB4000000000000000000CE01CE03DE039E03EB
:102FC4009C039C07FF3FFF7F3807380F780F780F6B
:102FD400780EFFFFFFFFF01EF01CE01CE03CE03D1C
:102FE400E03900000000000000000000FC03FE0FB8
:102FF400EE1FE01EE01EE01EE01EE01FE00FE007F3
:10300400F003FC01FE01FE01FE01FE01FE01FE01D2
:10301400FE3DFC3FF00FE001E00100000000000075
:10302400033E07F78FE78EE79EE3BCE3B8E7F8E7D4
:10303400F0F7E03FC001FF03FF07F307F30FF31EB0
:10304400F33CF338F3787FF03FE000000000000029
:1030540000000000E007F80F780F781F781F781F32
:10306400780FF00FE00F801FC37FC3FBE7F3F7F186
:10307400F7F0FFF07FF03EF87F7CFF3FEF1F00008A
:103084000000000000000000E003E003E003E003B0
:10309400E003C003C00100000000000000000000C5
:1030A400000000000000000000000000000000001C
:1030B4000000000000000000000000003F007C0051
:1030C400F001E001C003C00780078007800F000FF4
:1030D400000F000F000F000F000F800F8007800704
:1030E400C007C003E001F0017C003F000F000000B6
:1030F400007E001FC007C003E001F001F000F000F3
:10310400F800780078007800780078007800F800FB
:10311400F000F000F001E001C003C007001F007ED2
:1031240000780000E003C003C001CE39FF3F7F3FB9
:1031340020037003F807780F3C1F380600000000D6
:10314400000000000000000000000000000000007B
:10315400000000000000000000000000000000006B
:1031640000000000C001C001C001C001C001C001D5
:10317400C001FFFFFFFFC001C001C001C001C001C9
:10318400C00100000000000000000000000000007A
:10319400000000000000000000000000000000002B
:1031A4000000000000000000000000000000E00338
:1031B400E003E003E003E001E001E001C00180037B
:1031C40000000000000000000000000000000000FB
:1031D400000000000000FE3FFE3F00000000000071
:1031E40000000000000000000000000000000000DB
:1031F40000000000000000000000000000000000CB
:1032040000000000000000000000000000000000BA
:10321400000000000000E003E003E003E00300001E
:1032240000000000000000000F000F001E001E0040
:103234003C003C0078007800F000F000E001E00180
:10324400C003C00380078007000F000F001E001E8C
:10325400003C003C0078007800F00000F007F80F14
:103264007C1F3E3E1E3C1F7C1F7C0F780F780F781E
:103274000F780F780F780F781F7C1F7C1E3C3E3E22
:103284007C1FF80FF00700000000000000000000A1
:10329400F000F007F03FF03FF001F001F001F00121
:1032A400F001F001F001F001F001F001F001F00192
:1032B400F001F001F001FF3FFF3F000000000000BB
:1032C40000000000E00FF83F7C3C3C003E003E0064
:1032D4003E003C003C007C00F800F001E003C00725
:1032E4008007000F001E003E003CFE3FFE3F000032
:1032F4000000000000000000F00FF81F7C1C3E00DE
:103304003E003E003C003C00F800F00FF80F7C004B
:103314003E001E001E001E001E003E007C1CF81F06
:10332400E01F000000000000000000007800F8002A
:10333400F800F801F803F807F807780F781E781EEC
:10334400783C78787878FFFFFFFF78007800780081
:103354007800780078000000000000000000000001
:10336400FC1FFC1FFC1F001E001E001E001E001E72
:10337400E01FF81FFC007C003E003E001E003E00E3
:103384003E003C007C1CF81FE01F00000000000011
:1033940000000000FC01FE078E0F001F001E003E0F
:1033A400003C003CF83DFC3F3E7F1F7E0F3C0F3C41
:1033B4000F3C0F3C0F3E1F1E3E1FFC0FF00300008E
:1033C4000000000000000000FF3FFF3FFF3F0F0030
:1033D4001E001E003C0038007800F000F000E00100
:1033E400E001C003C0038007800F800F000F001F9F
:1033F400001F00000000000000000000F807FC0FA0
:103404003E1F1E1E1E3E1E3E1E1E3C1FF80FF007D2
:10341400F80FFC1E3E3E1F3C1F7C0F7C0F7C1F3CA4
:103424003E3FFC1FF0070000000000000000000009
:10343400F007F80F7C1E3E3C1E3C1F7C1F7C1F7C4B
:103444001F7C1F3C3F3EFF1FEF071F001E001E0096
:103454003E003C00F838F03FE01F00000000000090
:103464000000000030313233343536373839616288
:10347400636465666768696A6B6C6D6E6F707172A0
:0C348400737475767778797A0000000088
:04349000E900000847
:04349400C10000086B
:08349800101A0000202F0008AB
:0400000508002CF5CE
:00000001FF
