:020000040800F2
:100000000010002085260008D1260008D12600080F
:1000100000000000000000000000000000000000E0
:10002000000000000000000000000000D1260008D1
:100030000000000000000000D1260008D1260008C2
:10004000D126000800000000D1260008D1260008B3
:10005000D1260008D1260008D1260008D1260008A4
:1000600000000000D1260008D1260008D126000893
:10007000D1260008D1260008D12600080000000083
:10008000D12600080000000000000000D126000872
:1000900000000000D1260008D1260008D126000863
:1000A00000000000D126000800000000D126000852
:1000B0000000000000000000000000000000000040
:1000C00010B5064C2378002B07D1054B002B02D02E
:1000D000044800E000BF0123237010BD0800002089
:1000E00000000000CC270008044B10B5002B03D003
:1000F0000349044800E000BF10BDC04600000000F6
:100100000C000020CC2700080023C25C0133002A29
:10011000FBD1581E70470000002243088B4274D365
:1001200003098B425FD3030A8B4244D3030B8B42F8
:1001300028D3030C8B420DD3FF22090212BA030C01
:100140008B4202D31212090265D0030B8B4219D3E2
:1001500000E0090AC30B8B4201D3CB03C01A524102
:10016000830B8B4201D38B03C01A5241430B8B424A
:1001700001D34B03C01A5241030B8B4201D30B0333
:10018000C01A5241C30A8B4201D3CB02C01A52415A
:10019000830A8B4201D38B02C01A5241430A8B421D
:1001A00001D34B02C01A5241030A8B4201D30B0206
:1001B000C01A5241CDD2C3098B4201D3CB01C01A20
:1001C000524183098B4201D38B01C01A524143092A
:1001D0008B4201D34B01C01A524103098B4201D318
:1001E0000B01C01A5241C3088B4201D3CB00C01A85
:1001F000524183088B4201D38B00C01A52414308FD
:100200008B4201D34B00C01A5241411A00D2014621
:10021000524110467047FFE701B5002000F0F0F8AA
:1002200002BDC0460029F7D076E7704703460B436E
:100230007FD4002243088B4274D303098B425FD3DF
:10024000030A8B4244D3030B8B4228D3030C8B420B
:100250000DD3FF22090212BA030C8B4202D31212F1
:10026000090265D0030B8B4219D300E0090AC30BC6
:100270008B4201D3CB03C01A5241830B8B4201D373
:100280008B03C01A5241430B8B4201D34B03C01A5C
:100290005241030B8B4201D30B03C01A5241C30AD4
:1002A0008B4201D3CB02C01A5241830A8B4201D345
:1002B0008B02C01A5241430A8B4201D34B02C01A2F
:1002C0005241030A8B4201D30B02C01A5241CDD2D4
:1002D000C3098B4201D3CB01C01A524183098B421F
:1002E00001D38B01C01A524143098B4201D34B0108
:1002F000C01A524103098B4201D30B01C01A52416B
:10030000C3088B4201D3CB00C01A524183088B42F1
:1003100001D38B00C01A524143088B4201D34B00DA
:10032000C01A5241411A00D201465241104670474C
:100330005DE0CA0F00D04942031000D34042534051
:1003400000229C4603098B422DD3030A8B4212D311
:10035000FC22890112BA030A8B420CD38901921143
:100360008B4208D3890192118B4204D389013AD080
:10037000921100E08909C3098B4201D3CB01C01A55
:10038000524183098B4201D38B01C01A5241430968
:100390008B4201D34B01C01A524103098B4201D356
:1003A0000B01C01A5241C3088B4201D3CB00C01AC3
:1003B000524183088B4201D38B00C01A5241D9D2DB
:1003C00043088B4201D34B00C01A5241411A00D25C
:1003D0000146634652415B10104601D34042002B58
:1003E00000D54942704763465B1000D3404201B5D7
:1003F000002000F005F802BD0029F8D016E770478C
:100400007047C0468446101C62468C46191C6346E1
:1004100000E0C0461FB500F0DFFF002801D4002136
:10042000C8421FBD10B500F037FF4042013010BD7B
:1004300010B500F0D1FF002801DB002010BD012025
:1004400010BDC04610B500F0C7FF002801DD002038
:1004500010BD012010BDC04610B500F059FF0028A6
:1004600001DC002010BD012010BDC04610B500F019
:100470004FFF002801DA002010BD012010BDC0464A
:100480008446081C6146FFE71FB500F055FB0028B5
:1004900001D40021C8421FBD10B500F0D7FA404278
:1004A000013010BD10B500F047FB002801DB002033
:1004B00010BD012010BDC04610B500F03DFB002866
:1004C00001DD002010BD012010BDC04610B500F0B8
:1004D000E5FA002801DC002010BD012010BDC04657
:1004E00010B500F0DBFA002801DA002010BD012071
:1004F00010BDC046F8B54746CE4643025B0A4400ED
:10050000C20F9C464800DD004B02240E5B0A000E21
:1005100080B5984626009146C90FDB00271A8A420B
:1005200029D0002F15DD00284AD1002B00D095E0FE
:10053000ED08FF2C00D188E06B025B0AE6B25B029B
:10054000F605580A3043D20710430CBC9046994632
:10055000F8BD002F00D087E0601CC0B2012800DC8D
:10056000B6E0EE1A720100D5C5E0002E3DD10022A2
:1005700000260023E3E7002F00DC96E000285DD092
:10058000FF2C60D08022D20413431B2F00DDECE04F
:100590002022D21B18009340F8405A1E9341034377
:1005A000ED186B017BD50134FF2C00D1B7E001229F
:1005B00007262A406B089A4D1D4015432E4029E01E
:1005C000FF2CB5D08022D20413431B2F00DDB2E0F4
:1005D0002022D21B19009340F9405A1E93410B432D
:1005E000ED1A6B015BD5AD01AE09300001F07AFB6D
:1005F00005388640844265DC041B3300202001342A
:10060000E340041BA640751EAE41334307261D0080
:1006100000241E4001224B461A40002E04D00F2316
:100620002B40042B00D004356B0100D480E701344B
:10063000E6B2FF2C2FD1FF26002380E7002B52D1FA
:10064000FF2C00D074E70A00ED08002DF3D08023C2
:10065000DB032B435B025B0AFF2670E7013F002FA1
:10066000BED0FF2CB1D163E7002C47D0FF2869D062
:100670008024E4047A4225431B2A00DDC5E02C00D7
:100680002026D440B21A95406A1E954125435D1B31
:1006900004008946A5E7AB015B0A50E7002401226C
:1006A0004B461A406B07BAD142E7002F3BD10134C9
:1006B000E0B201284ADDFF2CBDD00726ED186D08F9
:1006C0002E40A7E70723574D241A35401E40A1E7C7
:1006D000002C1BD1002D6ED1002B00D19AE00A0016
:1006E0001D003C0024E7013F002F00D158E7FF2CFC
:1006F00000D04AE7A7E75E1B894676E7002D1CD1AC
:100700000A00FF281FD004001D0011E7002D5DD155
:10071000002B17D180230022DB03FF260FE70A00FE
:10072000FF2600230BE7002C21D1002D66D1FF28E6
:10073000E9D11D0087E7012352E77A1CA7D0FA43CD
:10074000FF2899D10A001D00FF24F1E6002E21D1D7
:10075000002D4FD0002B4CD0ED186B019ED5314BA6
:1007600007362E4001241D4054E7012318E7FF28D7
:10077000DFD08024E4047F4225431B2F4DDC20265C
:10078000F61B2C00B540FC406A1E95412543ED1830
:10079000040006E7002DCCD0002B00D153E78021C8
:1007A0006046C903084203D04046084200D11D00FC
:1007B0000121114047E7002B00D1B9E6EA1A5001A8
:1007C00025D507265D1B2E40894623E7FF24002BF5
:1007D00000D1ADE680226046D203104204D04046EC
:1007E000104201D11D00894601224B46FF241A40C8
:1007F0009EE62B00DD080A0000249DE67A1CC6D088
:10080000FF43FF28B9D11D001DE701253FE7151E55
:1008100000D044E70022002391E60125B7E7C04657
:10082000FFFFFF7DFFFFFFFBF8B557464E464546ED
:10083000DE464402E0B546008846640A360EC70F1D
:10084000002E63D0FF2E24D08023E400DB041C4361
:10085000002399469B467F3E434642465D02D20FA7
:100860005B006D0A1B0E9046924665D0FF2B55D05B
:1008700080220021ED00D2047F3B1543F61A434647
:100880004A467B400F2A00D98DE06D48920082587D
:100890009746002C54D108239946063BFF269B46D9
:1008A000DAE70025534602291BD0032900D1BFE017
:1008B000012928D030007F30002820DD6A0704D0CD
:1008C0000F222A40042A00D004352A0103D5300023
:1008D0005C4A80301540FE2803DCAC01640AC2B2D9
:1008E00001E0FF2200246402D205600ADB07104306
:1008F00018433CBC90469946A246AB46F8BD01223F
:10090000101A1B287CDD00220024ECE7002C1DD1EE
:1009100004239946033B00269B469DE7FF3E002D9E
:1009200020D1022143464A467B400A430F2AD8D8A9
:100930004548920082589746002D19D10121F1E7D0
:100940000C239946093BFF269B4685E7200001F0D2
:10095000C9F97626431F9C4000237642361A9946F1
:100960009B4679E74A4603231A439146032186E7CB
:10097000280001F0B7F9431F36189D407636002154
:100980007DE780240023E403FF22ACE700258023D9
:10099000DB031C4228D01D4226D12B435C02640A93
:1009A0004346FF229FE762016C01A24224D21B2131
:1009B0000025013E012710006D005200002801DBD8
:1009C000944201D8121B3D4301390029F3D1140090
:1009D000621E944125436DE7BA46594625005346A9
:1009E000022900D061E77CE78023DB031C4364021B
:1009F000640A3B00FF2276E7121B1A210125D9E782
:100A00009E362A00B5402C00C240651EAC411443FE
:100A1000620704D00F222240042A00D0043462016D
:100A200003D4A401640A00225DE7012200245AE7EE
:100A30008024E4032C436402640AFF2253E7C04687
:100A4000E4270008FFFFFFF72428000870B54200E4
:100A50004E024C0045026D0A120EC30F760A240E98
:100A6000C90FFF2A0FD0FF2C11D00120A24200D0C5
:100A700070BDB542FCD18B420DD0002AF8D12800C0
:100A8000451EA841F4E70120002DF1D1EBE701203C
:100A9000002EEDD1E9E70020EAE7C04670B54A0034
:100AA0004E02450244006D0A240EC30F760A120E50
:100AB000C90FFF2C15D0FF2A0ED0002C15D1002A0B
:100AC00001D1002E1CD0002D14D08B4227D0022043
:100AD000013B1840013870BD002EEED0022040428C
:100AE000F9E7002DFAD1FF2A0ED0002A0ED1002EF0
:100AF000EDD00BE001230139994308000130EAE70A
:100B00000020002DE7D0E2E7002EE7D18B42DED1B6
:100B1000944205DD0221581E08400138DBE700241D
:100B2000A24204DCB542D2D80020B542D3D2581E2E
:100B3000012398430130CEE730B5420044024D0214
:100B4000C30F4800640A120E6D0A000EC90FFF2A77
:100B500012D0FF280CD0002A12D1002819D1002D64
:100B600017D1002C2BD00220013B1840013826E081
:100B7000002DF0D0022022E0002CFBD1FF281FD056
:100B800000281FD1002D1DD10220013B1840013843
:100B900015E0002C0ED08B42E5D10022904204DCFF
:100BA000AC42E0D80020AC4209D2581E0123984341
:100BB000013004E00123013999430800013030BDC0
:100BC000002DD7D18B42CED18242E7DD0221581EC3
:100BD00008400138F3E7C046F0B54E465746454653
:100BE000DE46E0B543025B0A450083B00F1C994620
:100BF0002D0EC60F002D57D0FF2D24D08020DB00F6
:100C0000C0041843002381469A469B467F3D7C02E0
:100C10007A00FB0F640A120E984623D0FF2A4BD0AD
:100C2000E30080240020E4047F3A1C43AD186B1CD1
:100C300047460193534677403A000F2B48D87D49E9
:100C40009B00CB589F46002B00D085E008339A4686
:100C5000063B9B467C027A00FB0FFF25640A120EBE
:100C60009846DBD1002C00D090E0524601231A4375
:100C700092460120DBE74C4658461700022824D054
:100C8000032800D1CFE00022002301284DD15802D3
:100C9000D205400AFF071043384303B03CBC9046DE
:100CA0009946A246AB46F0BD002B5BD104239A4681
:100CB000033B00259B46AAE7FF35002C60D1524636
:100CC00002231A4392460220B1E7FF220023DEE707
:100CD0004B461B0C9C464B462604360C18046146BA
:100CE0003300220C6446000C43434E4350435443AC
:100CF00080191A0C1218964203D9802149028C4699
:100D000064441B041B0C1004C01883015E1EB34115
:100D1000800E1843130C1B199B0103431C00230175
:100D200079D5012362081C401443019A7F32002ABE
:100D30004DDD630704D00F232340042B00D004347F
:100D4000230103D53C4B019A1C408032FE2ABCDCB7
:100D5000A3015B0AD2B29AE70C239A46093BFF250E
:100D60009B4654E7180000F0BDFF4A46431F762516
:100D70009A4000236D4291462D1A9A469B4646E7BB
:100D8000524603231A439246032050E7200000F006
:100D9000A9FF431F2D1A9C40763D002047E7802382
:100DA0000027DB03FF2272E7424666E74C4632002B
:100DB000584662E780234A46DB031A4222D01C428F
:100DC00020D123435B025B0A4746FF225FE70123F2
:100DD0009A1A1B2A21DC23000199D3409E318C40B2
:100DE0001A0023005C1EA34113435A0704D00F22AC
:100DF0001A40042A00D004335A0111D49B015B0A23
:100E0000002244E780234A46DB0313435B025B0A6C
:100E10003700FF223BE7019587E70022002336E7F2
:100E20000122002333E78023DB0323435B025B0AB9
:100E3000FF222CE764280008FFFFFFF7F8B54746BC
:100E4000CE464400C20F80B547024802400A84469D
:100E5000664648007F0A240EF60025009046FB00F7
:100E6000000EC90FB146FF2800D185E00126714070
:100E7000261A914257D0002E43DD002800D07FE093
:100E80004946002900D1AAE0013E002E00D0F7E03B
:100E90005B1A5A0100D48BE09B019C09200000F0F2
:100EA00021FF05388440854200DDD3E0451B230047
:100EB00020200135EB40451BAC40621E944123438A
:100EC000072400251C40012241460A40002C04D082
:100ED0000F211940042900D00433590100D480E0C7
:100EE0000135ECB2FF2D00D0A3E0FF2400235B020C
:100EF000E405580AD207204310430CBC904699469B
:100F0000F8BD002E74D1601CC0B2012800DCA7E03F
:100F10004A469C1A620100D5B6E0002CBED10022E0
:100F200000240023E3E7002E00DC85E0002846D003
:100F3000FF2C49D080224846D2041043814601222A
:100F40001B2E09DC20204C46801B84404A46200092
:100F5000F240441EA04102439B185A0128D5013596
:100F6000FF2D00D1A8E00122072494491A405B0814
:100F70000B4013431C40A6E7002E00D078E775E72E
:100F8000FF2C54D080224946D204114389460122C5
:100F90001B2E09DC20214846891B88404A46010057
:100FA000F240481E81410A439B1A5A0100D573E75B
:100FB000012241460A40590700D089E711E048461E
:100FC000002858D1FF2C0CD1DB08002B00D18CE776
:100FD0008020C00303435B025B0AFF2487E7FF2CEA
:100FE00025D0DB08FF2DF0D05B025B0AECB27EE778
:100FF000002C4DD0FF2818D08024E40472422343F3
:101000001B2A00DDC4E01C002025D440AA1A93400E
:101010005A1E934123434A460500D31A884638E7AF
:10102000721CF8D0F243FF28EAD10A004B46FF2594
:10103000D7E79B015B0A5AE7002E41D1651CE9B254
:10104000012945DDFF2D00D14FE707244B445B0804
:101050001C4038E707225A4B2D1A2340144032E730
:10106000002C1DD1002B7AD14B46002B00D191E0F2
:101070000A000025B5E7013E002E19D14B446CE76C
:10108000FF2C84D1FF25ACE74A468846D41A05E7F1
:10109000002BC5D10A00FF28C8D005004B46A0E7A9
:1010A000002B49D14B46002B77D00A00FF2598E74B
:1010B000FF2C00D043E787E70A00FF24002316E750
:1010C000002C15D1002B57D1FF28E6D14B467BE7EA
:1010D000002C20D1002B57D04946002953D04B4437
:1010E0005A0168D50724364A1C4001251340EAE618
:1010F000FF28EBD08022D204764213431B2E53DC10
:101100002025AD1B1A00AB40F2405C1EA3411343E7
:101110004B44050021E7002BD8D04946002900D1D7
:1011200052E78021C9030F4200D14DE760460842D3
:1011300000D049E74B4647E74846FF25002800D145
:101140004FE78022D203174204D06046104201D1FB
:101150004B46884601224146FF250A4041E7484662
:1011600000281FD01A1A500120D54A460724D31A46
:101170001C4088460025A6E6741CC9D0F643FF280B
:10118000BCD14B4620E799464B460025DB082BE7B0
:10119000012340E700220023A9E680230022DB038D
:1011A000FF24A4E600251CE70123B1E7002AF1D0C3
:1011B00013000025FCE60025FAE6C046FFFFFF7D90
:1011C000FFFFFFFB41024200C30F490A120E00203D
:1011D0007E2A0DD99D2A0CD8802000040143952A2F
:1011E0000ADC9620821AD1404842002B00D1080028
:1011F0007047034A9818FBE7963A9140F4E7C046D7
:10120000FFFFFF7F70B500283DD0C317C5185D40B4
:10121000C40F280000F066FD9E22121A962A07DCF1
:10122000D2B2082833DD083885406802400A23E03E
:10123000992A0BDD052329001B1AD94003001B3313
:101240009D402B005D1EAB4119430D00052801DDBB
:10125000431F9D402B000F490B406E0709D00F26FE
:101260003540042D05D004335D0102D59F220B408B
:10127000121A9B01580AD2B24002D205400AE40772
:101280001043204370BD002400220020F4E76802D0
:10129000400AF1E7FFFFFFFBF0B54F464646D64652
:1012A0008446C0B58046194E18030F034D00000B4D
:1012B0005C0082463F0B6D0DC90F9146640DDB0F3C
:1012C0000120B5420AD0B44203D0A54201D157450E
:1012D0000CD01CBC90469946A246F0BD66463E43E3
:1012E000F7D1AC42F5D154461443F2D10120C845A0
:1012F000EFD1994207D0002DEBD163461F43380050
:10130000471EB841E5E70020E3E7C046FF070000BD
:10131000F0B54F464646D6464D00C0B50E03C90F40
:101320008A462C491F035C008046360B6D0D9146A2
:101330003F0B640DDB0F8D421ED08C4216D0002D6A
:101340001ED130438446002C01D13A4323D062465B
:10135000002A1AD09A4529D0514602200139084066
:1013600001381CBC90469946A246F0BD3900114395
:10137000E5D002204042F4E73043FAD1AC420FD02E
:10138000002C0FD13A43E7D00CE00122013B9343FC
:1013900018000130E5E763460020002BE1D0DBE7D1
:1013A0003A43E6D19A45D7D1A542D5DCA54205DB23
:1013B000BE42D1D808D00020BE42D2D2504601232E
:1013C000013898430130CCE7C845C5D80020C8454E
:1013D000F4D3C6E7FF070000F0B54F464646D646B1
:1013E0004D00C0B50E03C90F8A462E491F035C008D
:1013F0008046360B6D0D91463F0B640DDB0F8D4221
:1014000018D08C4211D0002D18D130438446002CC6
:101410001ED13A431CD163460020002B30D05146E8
:1014200002200139084001382AE039001143EAD08E
:10143000022025E03043FBD1AC4226D0002C26D13F
:101440003A4324D15146022001390840013817E0BF
:101450006246002A0FD09A45E1D1A54205DBBE4283
:10146000DDD819D00020BE420AD2504601230138EF
:101470009843013004E00122013B934318000130FE
:101480001CBC90469946A246F0BD3A43D0D19A453D
:10149000C5D1A542C3DCE0E7C845C0D80020C84597
:1014A000E3D3EDE7FF070000F8B557464E46454643
:1014B000DE460C000903E0B5490A460F5F003143E0
:1014C0001E03DB0F760A9B46530F3343C84E65005D
:1014D000C000E40FD2006D0DA24681467F0D9C46F0
:1014E0009046B74200D1B9E05B46012673409B4667
:1014F000EE1BA34500D183E0002E63DD002F00D05A
:10150000B1E06346134300D123E1731E002B00D0EA
:10151000BAE1861A6346B04280410125C91A4042A9
:10152000091A0B0200D447E149024B0A9846434688
:10153000002B00D189E1404600F0D4FB0300083BBA
:101540001F2B00DD7CE120223000D21A4146D04022
:10155000994002009E400A439D4200DD6AE15D1B06
:101560006B1C1F2B00DD94E1202110003500C91AEF
:101570008E40DA408840DD40711E8E411100072206
:101580002843002506433240002A09D00F23334068
:10159000042B05D0331DB342B641764289191E0093
:1015A0000B0200D43DE26A1C914B55056D0D9A4229
:1015B00000D119E18F4AF6080A4057075202374313
:1015C000120B9BE0002E00D0C5E06E1C7605760D58
:1015D000012E00DC48E16746861ACB1BB042BF41B2
:1015E0007F42B8461F004346FF1A3B00B8461B0225
:1015F00000D55FE137439AD100220024002579E02D
:10160000002E00DCFAE0002F00D18DE0784B9D42E7
:1016100067D0802367461B041F43BC46382E00DC7E
:1016200052E1634613435A1E93411E18864280417D
:10163000404209180B0200D4BEE06D4B01359D42BB
:1016400000D1D2E06B4A73080A4001210E401E43CC
:101650005108D30707221E43324095E71E00164368
:1016600000D045E740E7624B9D423AD08023674671
:101670001B041F43BC46382E00DDEBE01F2E00DCB0
:101680003AE133006746203BDF403B00202E05D087
:101690004027BF1B6646BE40324390464646721EF8
:1016A00096413343DAE0002B00D114E26346134342
:1016B00000D168E180234E07C008C9081B03064318
:1016C000194208D06046C008184204D163460100A0
:1016D000D2085E071643F3009946C900720F444DC5
:1016E00011434B46DE08424B4F073743CA089D4221
:1016F00000D16EE012036D05120B6D0D0021120377
:10170000130B0A0D12051A433B4B2D0513402B43B7
:101710005B00E4075B082343380019003CBC90469B
:101720009946A246AB46F8BD6346134311D0731EDB
:10173000002B00D007E18618864280416144404278
:10174000091801250B0237D502257BE73E006146CB
:1017500091463500C5E75C46002D00D0E1E00B0066
:101760000343F3D0731C00D1ACE1214B9F4200D165
:101770003AE1F343382B00DD6FE11F2B00DD8CE1F4
:1017800020250E00ED1AAE40B0460600AA46DE4007
:10179000454635432E005546D940A8406346451E70
:1017A000A8415B1A9C463043161AB24292416346E6
:1017B0005242991A3D00B4E607223240002A00D076
:1017C000E4E60B4BF6084F073743CA089D4200D0AA
:1017D00090E73B00134300D1A6E180231B031A438B
:1017E0001203120B024D89E715000022002785E73E
:1017F000FF070000FFFF7FFFFFFF0F80002E00D0DC
:10180000C7E06B1C5E05760D012E00DCF0E0C84DD4
:10181000AB4200D1B9E085180A0085428941624493
:10182000494251180722CE076D082E43490832401D
:101830001D00A9E6BF49ED1A114007223240A3E678
:10184000320028388240002686E6300000F04AFA4E
:10185000203073E6634613435A1E9341C61AB042C2
:1018600080414042091A5CE60E0067460643174372
:10187000002D5ED1002E00D0F3E0002F00D11EE13C
:101880005C46614691462CE7A94FBE427BD01E00C4
:10189000F1E610001F3DE840202B03D04021CB1A79
:1018A0009A401643731E9E41072206433240002190
:1018B000002583E7161A6346B2428041591A404216
:1018C0000B1A98465C4632E61F2E00DDABE020275F
:1018D000BB1B9A4663465746BB40994613004F468A
:1018E000F3401F433B005746BA40571EBA411343CB
:1018F0006246F240891898E62027BB1B9A46634649
:101900005746BB40994613004F46F3401F433B00E8
:101910005746BA40571EBA4113436246F240891AED
:101920009CE7834B9F425FD080252D04734229435F
:1019300020E7002E0CD1002F00D1D0E05C4661469C
:1019400091467B4DCDE67A4FBE421CD01E0065E627
:10195000002F18D0C0084E0706438020C908000396
:10196000014208D06346DC08044204D12100DA4673
:10197000D2085E071643F300994601245346C90076
:10198000720F11431C406A4DABE61D000022002778
:10199000B4E6002D59D10B00034300D1D6E6731CE9
:1019A00000D1B2E0624B9F421ED0F343382B6FDC74
:1019B0001F2B00DD97E020250E00ED1AAE40B0464B
:1019C0000600AA46DE40454635432E005546A8404F
:1019D000D940451EA8418C440643B6189642924110
:1019E000514261443D0025E63D006146914678E65E
:1019F0000B000343002D00D055E6002BF5D06346C5
:101A0000134300D16DE6861886428041614440420E
:101A1000091800220B0200D4D0E6464B01351940CC
:101A2000B2E5B1465DE633006746203BDF403B0050
:101A3000202E05D04027BF1B6646BE40324390464D
:101A40004646721E96413343EFE5394B9F42CBD059
:101A500080252D0473422943A8E70843411E88418D
:101A6000A2E6002F00D13CE66346861ACF1AB042A8
:101A70009B415B42FB1A98461B024ED5161A6346E1
:101A8000B2429241591A5242891A5C4600227BE5C1
:101A900001430E00711E8E419FE71D000E00203D88
:101AA000EE40B046202B04D04025EB1A9940084365
:101AB000814648464346411E8841184374E6002249
:101AC000002417E6161A6346B2429241591A52424E
:101AD000891A3D0025E561469146154D01E68022B3
:101AE0000024120379E61D000E00203DEE40B046B2
:101AF000202B04D04025EB1A9940084381464E46DE
:101B00004346711E8E411E4367E7861896429B41ED
:101B100061445B42C9183D008CE547463743CED04F
:101B200007224146324049E600273A00E6E5C04632
:101B3000FF070000FFFF7FFF4100090E4B1C70B53F
:101B4000DBB24602750AC40F012B14DDE0239B00B3
:101B50006D07360BCB1800210A0D280012051C4D0D
:101B600032435B052A405B0813435B00E4075B08D4
:101B70002343190070BD002914D1002D1ED0280068
:101B800000F0B0F80A281CDC0B232A001B1ADA40EC
:101B9000030015339D400F4B12031B1A5B05160BF8
:101BA0005B0DD8E7002D06D0320B802636036D077B
:101BB0001643094BCFE7084B0026CCE7002300264D
:101BC000C9E703002A000B3B9A400025E3E7C04623
:101BD000FFFF0F8089030000FF070000F0B54C00F5
:101BE000640D0B03621C5B0A460F5205C90F1E43AE
:101BF000C500520D012A29DD374BE718FE2F1CDCEA
:101C0000002F3BDD8001431E98410722F3006D0F3A
:101C100003432B431A40002A04D00F221A40042AFF
:101C200000D004338022D2041A4024D00137FAB203
:101C3000FF2F02D09B01580A01E0FF220020400242
:101C4000D205400AC90710430843F0BD3543002CB4
:101C500004D1002D0AD100220020F0E7002DECD0A5
:101C60008020C0033043FF22E9E7002400235B0209
:101C7000580AE2B2E3E7DB083C00F8E73B00173321
:101C8000F3DB80231B0433431E26F61B1F2E14DDBB
:101C900002225242D71B1A00FA401700202E04D00D
:101CA0000E4A94466444A3401D432B005D1EAB4185
:101CB00007223B431A400027ADE7094A2800A21833
:101CC000954093406C1EA541F04007222B430343EF
:101CD0001A4000279FE7C04680FCFFFFA2FCFFFFE1
:101CE00082FCFFFF1C2101231B04984201D3000C3E
:101CF00010391B0A984201D3000A08391B0998427F
:101D000001D30009043902A2105C40187047C04694
:101D100004030202010101010000000000000000B4
:101D2000F7B500F00DFC00F063FC00F01FF900F0C7
:101D30003BF900F083FA00F089FB6B46DD1D0023C0
:101D40002B702B786E4C632B00D8BEE0206864218A
:101D5000FEF76CFA20602368B43B236000232268FE
:101D60009A4200DB236823602068FFF74BFA65493D
:101D7000FEF732FF6449FEF757FD644B6449186073
:101D80001868FEF751FD6349FEF726FF624B1860A5
:101D90001D6862481968FFF751F8011C6048FEF79A
:101DA00043FD6049041C281CFEF716FF011C201C83
:101DB000FEF7A0FB5C4B5D49186018681D68FEF7D4
:101DC0000BFF291C041C5948FFF738F8011C201C84
:101DD000FEF72AFD564B574918601868FFF72EF892
:101DE000FFF7AAFE544A554BFFF75EFBFFF7F6FEDE
:101DF0000024534D211C28602868FEF753FB00285F
:101E000009D02868FFF798FE4E4A4F4BFEF724FB97
:101E1000002800D02C6028680021FEF761FB4B4CA5
:101E20004B4F00285AD028684A49FEF73BFB002850
:101E300054D02E682868FFF7C5F9FFF7E3F9011CB5
:101E4000301CFEF7FBFF4349FEF7C6FEFFF7BAF969
:101E5000414E30602868414DFFF7B4F90A2229004D
:101E600000F074FC0021142000F0C4FA0123626821
:101E70002168380000F0C4FA0021142000F0BAFAFA
:101E8000012321686268280000F0BAFA0123216862
:101E90006268334800F0B4FA3368092B05DC01238B
:101EA000216862682F4800F0ABFA0A2229003068E6
:101EB00000F04CFC06CC0123280000F0A1FA00F051
:101EC00099F9642000F0B2FA37E700F06BFB236861
:101ED000C01820602B780133DBB231E700211420D9
:101EE00000F088FA012321686268380000F088FA5F
:101EF0000021142000F07EFA06CC01231A48DCE70A
:101F0000380200206666464000F07F45240200202B
:101F10000000A84285EBD13F340200200000404081
:101F2000B81E053E00001643600200200000F0408D
:101F3000280200208FC2F53CB81E85EB51B89E3FA9
:101F40002C0200209A9999999999A9BF0000002024
:101F5000A42800080000C842300200203C020020F3
:101F6000AB280008AD280008AF2800088023054AE8
:101F7000DB0251690B4353610223034A11680B438F
:101F8000136070470010024000040048002384B032
:101F900001900393039A019B9A4201D304B07047C6
:101FA000039B0133F5E7000080230B4A10B551690C
:101FB00090249B020B435361C022E4052368002058
:101FC00093432360FFF7E2FF2368044A0020134095
:101FD0002360FFF7DBFF10BD00100240FFFCFFFF96
:101FE00070B59024C026E40523680020B343236025
:101FF000FFF7CCFF154D236800202B402360FFF72F
:10200000C5FF23680020B3432360402322681343A5
:102010002360082362681A436260A26A1343A362C2
:10202000FFF7B4FF236800202B4023608023226841
:102030005B0013432360102362681A436260A26A44
:102040001343A362FFF7A2FF70BDC046FFFCFFFF72
:1020500010B59024E4052368064A0020134023604D
:10206000FFF794FFC0222368002093432360FFF70B
:102070008DFF10BDFFFCFFFFF8B59024060008257A
:10208000E40573B2C022002B55DA23689343236022
:102090000020FFF77BFF2F4F236800203B40236089
:1020A000FFF774FF8022236852003B4023602368BF
:1020B000013D134323606368F03A13436360A36AEE
:1020C00000201343A3627600EDB2FFF75FFFF6B284
:1020D000002DD6D1C02623682800B3432360FFF724
:1020E00055FF236828003B402360FFF74FFF802205
:1020F000236852001F402760236828001343236091
:102100006368F03A13436360A36A1343A362FFF763
:102110003DFF23682800B343236040232268134314
:102120002360082362681A436260A26A1343A362B1
:10213000FFF72CFFF8BD23689343236040232268F8
:1021400013432360082362681A436260A26A134340
:10215000A3629DE7FFFCFFFF70B50C000500640063
:10216000FFF73EFFE0B2FFF787FF2878FFF784FF15
:102170006878FFF781FFFFF76BFF70BD07B500229E
:1021800001AB58703C2118001A70FFF7E5FF07BD3E
:1021900007B5402201AB58703C2118001A70FFF7B8
:1021A000DBFF07BD37B5002305000C000193019B41
:1021B000A34200DB37BD019BE85CFFF7E9FF019B11
:1021C0000133F3E7002382B00193431E9841074A8D
:1021D00007494042019B934201D902B07047019BDD
:1021E000C854019B01330193F4E7C046FF0100008E
:1021F0002400002013B56B46DC1D002323702378D8
:10220000072B00D913BD20785038C0B2FFF7B6FFB6
:102210000020FFF7B3FF1020FFF7B0FF4020FFF7CB
:10222000ADFF2078044BC001C0188021FFF7BAFF32
:1022300023780133DBB2E1E72400002010B5FFF77B
:10224000B3FEAE20FFF79AFFAE20FFF797FF2020E6
:10225000FFF794FF1020FFF791FFB020FFF78EFFEC
:10226000C020FFF78BFF0020FFF788FF1020FFF74B
:1022700085FF4020FFF782FF8120FFF77FFF0120CD
:10228000FFF77CFFA020FFF779FFA620FFF776FF7E
:10229000A820FFF773FF1F20FFF770FFA420FFF7B0
:1022A0006DFFD320FFF76AFF0020FFF767FFD520FF
:1022B000FFF764FFF020FFF761FFD920FFF75EFF13
:1022C0002220FFF75BFFDA20FFF758FF0220FFF71D
:1022D00055FFDB20FFF752FF2020FFF74FFF8D2037
:1022E000FFF74CFF1420FFF749FF0020FFF76AFFBC
:1022F000FFF780FFAF20FFF741FF0022024B1A805B
:102300005A8001325A7110BD6402002043B270B588
:10231000002B0FDB1F290DD80724CB080C4001210F
:10232000A140DB01054E181835564BB2012A02D1E7
:102330002B43335470BD9D433554FBE724000020EC
:10234000F0B589B003922A4A1F001388CCB21B193A
:10235000050002917F2B47DC02AB5E785388002298
:102360009B191F2B42DC0300203B73430592009313
:10237000059B9E4206D81E4A13881C19148028000B
:1023800009B0F0BD059B009A9B18039A5B009B5A0D
:102390000693002307931649079B08889C4203D89D
:1023A000059B01330593E3E7069B079AC0B2934070
:1023B00080221202897813420BD0079B059AC0181D
:1023C00089183A00C9B2C0B2FFF7A0FF079B0133DA
:1023D000E0E7079B059AC01894467A427A41614427
:1023E000D2B2C9B2C0B2EFE70025C8E71500C6E710
:1023F00064020020014B188059807047640200205D
:1024000073B505001E000400009101922800FDF73D
:102410007BFE631B984200D873BD2078330000997F
:10242000019AFFF78DFF0134F0E7000084B00190BE
:10243000019A054B53430393039B5A1E0392002BAF
:10244000FAD104B07047C0468813000070B58025EB
:1024500090223649AD024B69D2052B434B6113687C
:102460003348102403401360802310689B03034308
:102470001360C02390689B03034393608023506ADA
:102480009B0003435362802388691B0103438B61D4
:10249000284B586820435860082058628930FF3024
:1024A000D862D86A4008D8637020DE693043D861AA
:1024B00080201E6A40003043186280205E6C00025B
:1024C00006435E644E6935434D6115681A4E3540CA
:1024D00015601568054315608025166A6D0535433E
:1024E00015620222CD692A43CA610621134A956802
:1024F0000D439560956829439160D96AD162D96A84
:1025000049089163E0219569C90129439161116AE4
:102510000C431462516C0843012150641068084355
:1025200010601A681143196070BDC0460010024067
:10253000FFFFCFFF002C0140FF3FFFFF00040040E2
:102540001022154B19680A431A60012219680A43C0
:102550001A60124B12491A680A401A6080229204CB
:1025600019681142FCD1A022596892030A435A60AB
:102570008022196852040A431A6080229204196862
:102580001142FCD0022259680A435A600822596855
:102590001142FCD07047C0460020024000100240AB
:1025A000FFFFFFFE37B56A46002301240420D11C3B
:1025B00001930B700D4B0A78F92A05D90198FA217D
:1025C000FDF734FE80B23EBD1A682242FCD09A6804
:1025D00002439A601A680242FCD01D6C019A52199B
:1025E00001920A780132D2B20A70E4E70024014075
:1025F0008022214B9202596920480A435A61902255
:10260000D205116801401160C02110680901014321
:1026100011608022996992000A439A612022184B26
:102620009A628022196912060A4301211A615A69C5
:102630000A435A619A680A4203D0022299680A43FF
:102640009A60012299681142FCD180229968120691
:102650000A439A609A68002AFCDB01221968114239
:1026600002D019680A431A600122996811439960DF
:1026700019681142FCD0704700100240FFF3FFFFC1
:10268000002401400C4885460C480D490D4A0023A2
:1026900002E0D458C4500433C4188C42F9D30A4A17
:1026A0000A4C002301E013600432A242FBD300F085
:1026B00011F8FFF735FBFEE70010002000000020B6
:1026C00008000020302F0008080000206C020020C5
:1026D000FEE7000070B500260C4D0D4C641BA410E5
:1026E000A64209D1002600F071F80A4D0A4C641B7D
:1026F000A410A64205D170BDB300EB58984701362F
:10270000EEE7B300EB5898470136F2E7282F0008B0
:10271000282F0008282F00082C2F0008931E10B522
:102720000C00222B04D900231C000B70200010BDCC
:102730000A2A09D1002807DA2D230B700121404213
:10274000611800F007F8F1E70021F9E710B5FFF78D
:10275000E5FF10BDF0B517008DB0252206000D0075
:1027600002A8144900F028F802AABB1E0024019216
:10277000222B05D92C70250028000DB0F0BD1400C7
:1027800030003900FDF74EFD84460198621CAB18FD
:10279000415C5E1E31706646002EF0D11E702B002B
:1027A0005A1B9442E8DD1A78295D19702A550133C5
:1027B000013CF5E7002F0008002310B59A4200D134
:1027C00010BDCC5CC4540133F8E70000F8B5C04636
:1027D000F8BC08BC9E467047F8B5C046F8BC08BCBB
:0427E0009E4670475A
:1027E400A6090008E208000806090008A408000871
:1027F400060900088209000806090008A408000860
:10280400E2080008E208000882090008A408000899
:10281400D8090008D8090008D80900088E0900085A
:10282400E2080008E208000806090008A2080008F7
:10283400060900088209000806090008A208000821
:10284400E2080008E208000882090008A20800085B
:10285400D8090008D8090008D80900088C0900081C
:10286400D00C00087A0C00087A0C0008A80D0008A7
:10287400760C0008760C00089E0D0008A80D0008D0
:10288400760C00089E0D0008760C0008A80D0008C0
:10289400AC0D0008AC0D0008AC0D0008B40D000828
:1028A400202020202020002E0030002D202D2D005F
:1028B4000000000000000000000000000000000014
:1028C4000000000000000000000000000000000004
:1028D40000000000000000000000000000000000F4
:1028E40000000000E003E003E003E003E003E00392
:1028F400E003E003C003C003C001C001C001C00184
:10290400C001000000000000E003E003E003000059
:1029140000000000000000003C1E3C1E3C1E3C1E4B
:102924003C1E3C1E3C1E0000000000000000000095
:102934000000000000000000000000000000000093
:10294400000000000000000000000000CE01CE03E3
:10295400DE039E039C039C07FF3FFF7F3807380F6D
:10296400780F780F780EFFFFFFFFF01EF01CE01CBD
:10297400E03CE03DE0390000000000000000000001
:10298400FC03FE0FEE1FE01EE01EE01EE01EE01F33
:10299400E00FE007F003FC01FE01FE01FE01FE0171
:1029A400FE01FE01FE3DFC3FF00FE001E0010000EE
:1029B40000000000033E07F78FE78EE79EE3BCE3C9
:1029C400B8E7F8E7F0F7E03FC001FF03FF07F307BC
:1029D400F30FF31EF33CF338F3787FF03FE000008D
:1029E4000000000000000000E007F80F780F781FD7
:1029F400781F781F780FF00FE00F801FC37FC3FB91
:102A0400E7F3F7F1F7F0FFF07FF03EF87F7CFF3F4C
:102A1400EF1F00000000000000000000E003E003DE
:102A2400E003E003E003C003C00100000000000075
:102A34000000000000000000000000000000000092
:102A44000000000000000000000000000000000082
:102A54003F007C00F001E001C003C007800780074D
:102A6400800F000F000F000F000F000F000F800FEA
:102A740080078007C007C003E001F0017C003F002D
:102A84000F000000007E001FC007C003E001F0013A
:102A9400F000F000F8007800780078007800780002
:102AA4007800F800F000F000F001E001C003C00776
:102AB400001F007E00780000E003C003C001CE398F
:102AC400FF3F7F3F20037003F807780F3C1F380651
:102AD40000000000000000000000000000000000F2
:102AE40000000000000000000000000000000000E2
:102AF4000000000000000000C001C001C001C001CE
:102B0400C001C001C001FFFFFFFFC001C001C0013F
:102B1400C001C001C001000000000000000000006E
:102B240000000000000000000000000000000000A1
:102B34000000000000000000000000000000000091
:102B44000000E003E003E003E003E001E001E00152
:102B5400C00180030000000000000000000000002D
:102B640000000000000000000000FE3FFE3F0000E7
:102B74000000000000000000000000000000000051
:102B84000000000000000000000000000000000041
:102B94000000000000000000000000000000000031
:102BA40000000000000000000000E003E003E00378
:102BB400E003000000000000000000000F000F0010
:102BC4001E001E003C003C0078007800F000F0007D
:102BD400E001E001C003C00380078007000F000F7D
:102BE400001E001E003C003C0078007800F000004D
:102BF400F007F80F7C1F3E3E1E3C1F7C1F7C0F78A5
:102C04000F780F780F780F780F780F781F7C1F7C60
:102C14001E3C3E3E7C1FF80FF00700000000000041
:102C240000000000F000F007F03FF03FF001F00179
:102C3400F001F001F001F001F001F001F001F00108
:102C4400F001F001F001F001F001FF3FFF3F00004F
:102C54000000000000000000E00FF83F7C3C3C0056
:102C64003E003E003E003C003C007C00F800F001C9
:102C7400E003C0078007000F001E003E003CFE3F3B
:102C8400FE3F00000000000000000000F00FF81FED
:102C94007C1C3E003E003E003C003C00F800F00F6F
:102CA400F80F7C003E001E001E001E001E003E00A9
:102CB4007C1CF81FE01F0000000000000000000062
:102CC4007800F800F800F801F803F807F807780F1F
:102CD400781E781E783C78787878FFFFFFFF7800BC
:102CE4007800780078007800780000000000000088
:102CF40000000000FC1FFC1FFC1F001E001E001E25
:102D0400001E001EE01FF81FFC007C003E003E0079
:102D14001E003E003E003C007C1CF81FE01F00002B
:102D24000000000000000000FC01FE078E0F001FE1
:102D3400001E003E003C003CF83DFC3F3E7F1F7EF1
:102D44000F3C0F3C0F3C0F3C0F3E1F1E3E1FFC0F61
:102D5400F00300000000000000000000FF3FFF3F00
:102D6400FF3F0F001E001E003C0038007800F000FA
:102D7400F000E001E001C003C0038007800F800F72
:102D8400000F001F001F00000000000000000000F2
:102D9400F807FC0F3E1F1E1E1E3E1E3E1E1E3C1F3D
:102DA400F80FF007F80FFC1E3E3E1F3C1F7C0F7C03
:102DB4000F7C1F3C3E3FFC1FF0070000000000009A
:102DC40000000000F007F80F7C1E3E3C1E3C1F7CF8
:102DD4001F7C1F7C1F7C1F3C3F3EFF1FEF071F0013
:102DE4001E001E003E003C00F838F03FE01F0000CB
:102DF40000000000000000000000000000000000CF
:102E040000000000E003E003E003E0030000000032
:102E140000000000000000000000E003E003E00305
:102E2400E0030000000000000000000000000000BB
:102E34000000000000000000E003E003E003E00302
:102E44000000000000000000000000000000E0039B
:102E5400E003E003E003E001E001E001C0038003DC
:102E640000000000000000000000000003000F004C
:102E74003F00FC00F003C00F003F00FE003FC00F06
:102E8400F003FC003F000F000300000000000000FE
:102E9400000000000000000000000000000000002E
:102EA4000000000000000000FFFFFFFF0000000022
:102EB4000000FFFFFFFF0000000000000000000012
:102EC40000000000000000000000000000000000FE
:102ED4000000000000E000F8007E801FE007F80119
:102EE4007E001F007E00F801E007801F007E00F8CE
:102EF40000E0000000000000000000003031323328
:102F04003435363738396162636465666768696A7F
:102F14006B6C6D6E6F707172737475767778797A85
:042F240000000000A9
:042F2800E9000008B4
:042F2C00C1000008D8
:082F3000101A0000B42800088B
:040000050800268544
:00000001FF
